:020000040800F2
:1000000000040020C10100085130000851300008F0
:1000100041280008513000085130000851300008D4
:1000200051300008513000085130000801520008DA
:10003000513000085130000851300008A1B60008C6
:100040005130000821860008B187000801880008A7
:10005000513000085130000861830008B183000866
:100060000184000851840008A1840008A1780008D8
:10007000F17800084179000891790008E1790008D9
:10008000317A0008817A0008D1810008A18900082E
:10009000118A0008C18A0008718B0008F1840008E9
:1000A000513000085130000851B1000851300008AB
:1000B00061B20008A1B20008E1B20008319900085D
:1000C000719A000851300008513000085130000882
:1000D00051300008513000085130000861B7000865
:1000E0008185000871860008C1860008513000082B
:1000F000513000085130000851300008D17A000812
:1001000051300008018D000821B30008513000086B
:10011000513000085130000811B10008513000087A
:10012000217B0008717B0008C17B0008117C00085E
:10013000617C000851300008118700085130000828
:1001400051300008513000085130000851AD00080E
:10015000B17C0008017D0008517D00085130000885
:10016000513000085130000851300008513000086B
:10017000618700085130000801170008513000085D
:10018000513000085130000851300008513000084B
:10019000513000085130000851300008513000083B
:1001A000513000085130000851300008513000082B
:1001B000513000085130000851300008513000081B
:1001C00072B62E4880F3098840F20000CCF200009D
:1001D0004EF63471CEF20001086040F20000C0F229
:1001E000F0004EF68851CEF2000108604FF000009A
:1001F000E1EE100A4EF63C71CEF2000108600620D6
:1002000080F31488BFF36F8F0BF0F2FB4FF0553083
:100210001B491C4A91423CBF41F8040BFAE71A49BA
:10022000164A91423CBF41F8040BFAE71749184AB5
:10023000184B9A423EBF51F8040B42F8040BF8E702
:1002400000201549154A91423CBF41F8040BFAE7DA
:1002500002F0E6FE124C134DAC4203DA54F8041BD4
:100260008847F9E701F004F80F4C104DAC4203DA6F
:1002700054F8041B8847F9E702F0E2BE00080020AA
:1002800000000020000400200004002038050108C0
:10029000000800200412002008120020C02E0020B8
:1002A000C0010008C0010008C0010008C00100082A
:1002B0002DE9F04F2DED108AC1F80CD0D0F80CD0FC
:1002C000BDEC108ABDE8F08F03F002F804F038F8B6
:1002D000002383F311882846A047002003F0D0FDB7
:1002E00004F016F802F0D4FF03F0F2FB02F0F0FF86
:1002F00004F026F800DFFEE7000000000000000028
:1003000081F0004102E000BF83F0004330B54FEAC6
:1003100041044FEA430594EA050F08BF90EA020F33
:100320001FBF54EA000C55EA020C7FEA645C7FEAC6
:10033000655C00F0E2804FEA5454D4EB5555B8BFE9
:100340006D420CDD2C4480EA020281EA030382EA5A
:10035000000083EA010180EA020281EA0303362DEC
:1003600088BF30BD11F0004F4FEA01314FF4801CBF
:100370004CEA113102D0404261EB410113F0004FD1
:100380004FEA03334CEA133302D0524263EB430388
:1003900094EA050F00F0A780A4F10104D5F1200E26
:1003A0000DDB02FA0EFC22FA05F2801841F1000181
:1003B00003FA0EF2801843FA05F359410EE0A5F155
:1003C00020050EF1200E012A03FA0EFC28BF4CF086
:1003D000020C43FA05F3C01851EBE37101F000453C
:1003E00007D54FF0000EDCF1000C7EEB00006EEB49
:1003F0000101B1F5801F1BD3B1F5001F0CD34908D3
:100400005FEA30004FEA3C0C04F101044FEA445229
:1004100012F5800F80F09A80BCF1004F08BF5FEAB0
:10042000500C50F1000041EB045141EA050130BD90
:100430005FEA4C0C404141EB010111F4801FA4F133
:100440000104E9D191F0000F04BF01460020B1FA88
:1004500081F308BF2033A3F10B03B3F120020CDAC0
:100460000C3208DD02F1140CC2F10C0201FA0CF09E
:1004700021FA02F10CE002F11402D8BFC2F1200C03
:1004800001FA02F120FA0CFCDCBF41EA0C019040B9
:10049000E41AA2BF01EB0451294330BD6FEA040402
:1004A0001F3C1CDA0C340EDC04F11404C4F12002ED
:1004B00020FA04F001FA02F340EA030021FA04F3FF
:1004C00045EA030130BDC4F10C04C4F1200220FA56
:1004D00002F001FA04F340EA0300294630BD21FA94
:1004E00004F0294630BD94F0000F83F4801306BF5A
:1004F00081F480110134013D4EE77FEA645C18BF4E
:100500007FEA655C29D094EA050F08BF90EA020FE4
:1005100005D054EA000C04BF1946104630BD91EADC
:10052000030F1EBF0021002030BD5FEA545C05D1DF
:100530004000494128BF41F0004130BD14F580041E
:100540003CBF01F5801130BD01F0004545F0FE4192
:1005500041F470014FF0000030BD7FEA645C1ABFC7
:10056000194610467FEA655C1CBF0B46024650EAFE
:10057000013406BF52EA033591EA030F41F400212A
:1005800030BD00BF90F0000F04BF0021704730B5B0
:100590004FF4806404F132044FF000054FF0000185
:1005A00050E700BF90F0000F04BF0021704730B546
:1005B0004FF4806404F1320410F0004548BF40421B
:1005C0004FF000013EE700BF42004FEAE2014FEA70
:1005D00031014FEA02701FBF12F07F4393F07F4F4B
:1005E00081F06051704732F07F4208BF704793F04E
:1005F0007F4F04BF41F40021704730B54FF4607461
:1006000001F0004521F000411CE700BF50EA010263
:1006100008BF704730B54FF000050AE050EA01020C
:1006200008BF704730B511F0004502D5404261EB7C
:1006300041014FF4806404F132045FEA915C3FF4BD
:10064000D8AE4FF003025FEADC0C18BF03325FEA5A
:10065000DC0C18BF033202EBDC02C2F1200300FA0B
:1006600003FC20FA02F001FA03FE40EA0E0021FA30
:1006700002F11444BDE600BF0000000000000000CD
:1006800070B54FF0FF0C4CF4E06C1CEA11541DBF28
:100690001CEA135594EA0C0F95EA0C0F00F0DEF8F3
:1006A0002C4481EA030621EA4C5123EA4C5350EAD8
:1006B000013518BF52EA033541F4801143F4801329
:1006C00038D0A0FB02CE4FF00005E1FB02E506F0BA
:1006D0000042E0FB03E54FF00006E1FB03569CF00F
:1006E000000F18BF4EF0010EA4F1FF04B6F5007F15
:1006F00064F5407404D25FEA4E0E6D4146EB060687
:1007000042EAC62141EA55514FEAC52040EA5E500F
:100710004FEACE2EB4F1FD0C88BFBCF5E06F1ED8B9
:10072000BEF1004F08BF5FEA500E50F1000041EBF0
:10073000045170BD06F0004646EA010140EA02009D
:1007400081EA0301B4EB5C04C2BFD4EB0C0541EABF
:10075000045170BD41F480114FF0000E013C00F3D4
:10076000AB8014F1360FDEBF002001F0004170BDF8
:10077000C4F10004203C35DA0C341BDC04F1140411
:10078000C4F1200500FA05F320FA04F001FA05F29D
:1007900040EA020001F0004221F0004110EBD3706A
:1007A00021FA04F642EB06015EEA430E08BF20EA96
:1007B000D37070BDC4F10C04C4F1200500FA04F339
:1007C00020FA05F001FA04F240EA020001F00041CB
:1007D00010EBD37041F100015EEA430E08BF20EA3E
:1007E000D37070BDC4F1200500FA05F24EEA020E86
:1007F00020FA04F301FA05F243EA020321FA04F0B5
:1008000001F0004121FA04F220EA020000EBD3706B
:100810005EEA430E08BF20EAD37070BD94F0000F6B
:100820000FD101F00046400041EB010111F4801F9F
:1008300008BF013CF7D041EA060195F0000F18BF50
:10084000704703F00046520043EB030313F4801F8C
:1008500008BF013DF7D043EA0603704794EA0C0F46
:100860000CEA135518BF95EA0C0F0CD050EA41065C
:1008700018BF52EA4306D1D181EA030101F00041D9
:100880004FF0000070BD50EA410606BF1046194601
:1008900052EA430619D094EA0C0F02D150EA01360D
:1008A00013D195EA0C0F05D152EA03361CBF10464E
:1008B00019460AD181EA030101F0004141F0FE41ED
:1008C00041F470014FF0000070BD41F0FE4141F471
:1008D000780170BD70B54FF0FF0C4CF4E06C1CEA71
:1008E00011541DBF1CEA135594EA0C0F95EA0C0F26
:1008F00000F0A7F8A4EB050481EA030E52EA0335E1
:100900004FEA013100F088804FEA03334FF0805501
:1009100045EA131343EA12634FEA022245EA11152E
:1009200045EA10654FEA00260EF000419D4208BFDF
:10093000964244F1FD0404F5407402D25B084FEA8C
:100940003202B61A65EB03055B084FEA32024FF438
:1009500080104FF4002CB6EB020E75EB030E22BF95
:10096000B61A754640EA0C005B084FEA3202B6EB55
:10097000020E75EB030E22BFB61A754640EA5C0004
:100980005B084FEA3202B6EB020E75EB030E22BF94
:10099000B61A754640EA9C005B084FEA3202B6EB95
:1009A000020E75EB030E22BFB61A754640EADC0054
:1009B00055EA060E18D04FEA051545EA16754FEAB6
:1009C00006164FEAC30343EA52734FEAC2025FEAD4
:1009D0001C1CC0D111F4801F0BD141EA00014FF063
:1009E00000004FF0004CB6E711F4801F04BF014334
:1009F0000020B4F1FD0C88BFBCF5E06F3FF6AFAE50
:100A0000B5EB030C04BFB6EB020C5FEA500C50F1DF
:100A1000000041EB045170BD0EF0004E4EEA113162
:100A200014EB5C04C2BFD4EB0C0541EA045170BD69
:100A300041F480114FF0000E013C90E645EA060EAD
:100A40008DE60CEA135594EA0C0F08BF95EA0C0FDB
:100A50003FF43BAF94EA0C0F0AD150EA01347FF423
:100A600034AF95EA0C0F7FF425AF104619462CE7FA
:100A700095EA0C0F06D152EA03353FF4FDAE10465D
:100A8000194622E750EA410618BF52EA43067FF4AE
:100A9000C5AE50EA41047FF40DAF52EA43057FF43E
:100AA000EBAE12E7000000000000000000000000B4
:100AB0004FEA410212F5001215D211D56FF4787386
:100AC000B3EB625212D94FEAC12343F0004343EA29
:100AD000505311F0004F23FA02F018BF4042704704
:100AE0004FF00000704750EA013005D111F000408E
:100AF00008BF6FF0004070474FF00000704700BF24
:100B000053B94AB9002908BF00281CBF4FF0FF3174
:100B10004FF0FF3000F074B9ADF1080C6DE904CE70
:100B200000F006F8DDF804E0DDE9022304B07047C8
:100B30002DE9F047089E04468846002B4BD18A4297
:100B4000154667D9B2FA82F24AB1C2F1200701FA1A
:100B500002F320FA07F7954047EA030894404FEA6A
:100B6000154E230CB8FBFEF71FFA85FC0EFB178809
:100B700043EA084307FB0CF1994209D9EB1807F146
:100B8000FF3080F01B81994240F21881023F2B44D4
:100B90005B1AA4B2B3FBFEF00EFB103344EA03442D
:100BA00000FB0CFCA44509D92C1900F1FF3380F09F
:100BB0000781A44540F2048102382C4440EA0740F2
:100BC000A4EB0C0400271EB1D4400023C6E9004367
:100BD0003946BDE8F0878B4209D9002E00F0EB8042
:100BE0000027C6E9000138463946BDE8F087B3FA68
:100BF00083F7002F47D18B4202D3824200F2FA8062
:100C0000841A61EB030301209846002EE0D0C6E968
:100C10000048DDE702B9FFDEB2FA82F2002A40F0B6
:100C20008F80491B4FEA154E1FFA85F80127B1FB4B
:100C3000FEFC230C0EFB1C1143EA014308FB0CF1E4
:100C4000994207D9EB180CF1FF3002D2994200F219
:100C5000CD808446591AA3B2B1FBFEF00EFB1014EE
:100C600043EA044408FB00F8A04507D92C1900F119
:100C7000FF3302D2A04500F2B6801846A4EB080468
:100C800040EA0C409FE7C7F1200CBB4022FA0CFE63
:100C90004EEA030E01FA07F420FA0CF521FA0CF3E0
:100CA0004FEA1E482543B3FBF8F92C0C08FB193317
:100CB0001FFA8EFA44EA034309FB0AF49C4202FA43
:100CC00007F200FA07F10BD91EEB030309F1FF301D
:100CD00080F087809C4240F28480A9F1020973442D
:100CE0001B1BADB2B3FBF8F008FB103345EA03441D
:100CF00000FB0AFAA24508D91EEB040400F1FF33F9
:100D00006BD2A24569D90238744440EA0940A0FB7D
:100D10000289A4EB0A044C45C2464B4654D351D039
:100D2000002E69D0B1EB0A0564EB030404FA0CFC55
:100D3000FD40FC404CEA0505C6E90054002747E7A2
:100D4000C2F1200320FA03F7954001FA02F021FADC
:100D500003F34FEA154E3843010CB3FBFEF71FFABD
:100D600085F80EFB173341EA034107FB08F38B427A
:100D700004FA02F407D9691807F1FF3C2FD28B421D
:100D80002DD9023F2944CB1A81B2B3FBFEF00EFBF2
:100D9000103341EA034100FB08F38B4207D969187D
:100DA00000F1FF3C17D28B4215D902382944C91AE9
:100DB00040EA07473BE73746304609E70746E7E69C
:100DC0001846FBE64145ABD2B8EB020A69EB0E02CE
:100DD00001381346A4E76046E9E7184695E76746F9
:100DE000D1E781467CE702382C4447E7ACF1020C9E
:100DF0002B442FE7384608E73746E9E600000000B5
:100E0000704700BF0000000000000000000000006C
:100E1000844641EA000313F003036DD1403A41D305
:100E200051F8043B40F8043B51F8043B40F8043BC4
:100E300051F8043B40F8043B51F8043B40F8043BB4
:100E400051F8043B40F8043B51F8043B40F8043BA4
:100E500051F8043B40F8043B51F8043B40F8043B94
:100E600051F8043B40F8043B51F8043B40F8043B84
:100E700051F8043B40F8043B51F8043B40F8043B74
:100E800051F8043B40F8043B51F8043B40F8043B64
:100E900051F8043B40F8043B51F8043B40F8043B54
:100EA000403ABDD2303211D351F8043B40F8043BF4
:100EB00051F8043B40F8043B51F8043B40F8043B34
:100EC00051F8043B40F8043B103AEDD20C3205D304
:100ED00051F8043B40F8043B043AF9D2043208D0FC
:100EE000D2071CBF11F8013B00F8013B01D30B886E
:100EF00003806046704700BF082A13D38B078DD04C
:100F000010F003038AD0C3F10403D21ADB071CBF1D
:100F100011F8013B00F8013B80D331F8023B20F887
:100F2000023B7BE7043AD9D3013A11F8013B00F8C0
:100F3000013BF9D20B7803704B7843708B78837048
:100F40006046704700000000000000000000000044
:100F500090F800F06DE9024520F007016FF0000CF9
:100F600010F0070491F820F040F049804FF00004A1
:100F70006FF00700D1E9002391F840F000F108007C
:100F800082FA4CF2A4FA8CF283FA4CF3A2FA8CF3B4
:100F90004BBBD1E9022382FA4CF200F10800A4FA1B
:100FA0008CF283FA4CF3A2FA8CF3E3B9D1E904236F
:100FB00082FA4CF200F10800A4FA8CF283FA4CF3A6
:100FC000A2FA8CF37BB9D1E9062301F1200182FA60
:100FD0004CF200F10800A4FA8CF283FA4CF3A2FA66
:100FE0008CF3002BC6D0002A04BF04301A4612BA74
:100FF000B2FA82F2FDE8024500EBD2007047D1E977
:10100000002304F00305C4F100004FEAC50514F005
:10101000040F91F840F00CFA05F562EA05021CBFD6
:1010200063EA050362464FF00004A9E700000000F0
:1010300001F0FF01102A2BDB10F0070F08D010F889
:10104000013B013A8B422DD010F0070F42B3F6D18D
:10105000F0B441EA012141EA014122F007047FF0A6
:1010600000070023F0E80256083C85EA010586EAFD
:10107000010685FA47F5A3FA87F586FA47F6A5FA39
:1010800087F68EB9EED1F0BC01F0FF0102F0070245
:1010900032B110F8013B013A83EA010313B1F8D1F0
:1010A0000020704701387047002D06BF35460338D1
:1010B000073815F0010F07D1013015F4807F02BF0A
:1010C000013015F4C03F0130F0BC0138704700BF5B
:1010D0004FF0FF3C06E000BF4FF0010C02E000BF04
:1010E0004FF0010C4DF804CD4FEA410C7FEA6C5CE7
:1010F0004FEA430C18BF7FEA6C5C1BD001B050EA8A
:10110000410C0CBF52EA430C91EA030F02BF90EA74
:10111000020F0020704710F1000F91EA030F58BF33
:10112000994208BF90422CBFD8176FEAE37040F095
:10113000010070474FEA410C7FEA6C5C02D150EA33
:10114000013C07D14FEA430C7FEA6C5CD6D152EAEE
:10115000033CD3D05DF8040B704700BF84461046B3
:1011600062468C461946634600E000BF01B5FFF7B2
:10117000B7FF002848BF10F1000F01BD4DF808ED82
:10118000FFF7F4FF0CBF012000205DF808FB00BF53
:101190004DF808EDFFF7EAFF34BF012000205DF8AD
:1011A00008FB00BF4DF808EDFFF7E0FF94BF0120FA
:1011B00000205DF808FB00BF4DF808EDFFF7CEFFFB
:1011C00094BF012000205DF808FB00BF4DF808ED3A
:1011D000FFF7C4FF34BF012000205DF808FB00BF0B
:1011E0004FEA410C7FEA6C5C02D150EA013C0AD123
:1011F0004FEA430C7FEA6C5C02D152EA033C02D115
:101200004FF0000070474FF00100704700000000F1
:1012100070B5124C124D23682A6884B00646ADF8AA
:1012200006101B680F490392204605229847236841
:1012300002221B680DF10601204698472368BDF87D
:1012400006201B68314620469847039A2B689A422D
:1012500001D104B070BD00F033F800BF142E00209F
:1012600000080020E0F3000800000000000000007B
:1012700000B50F4B83B01B68019304F021F801F017
:10128000FFFE01F085FA0B490B4805F059FA01F011
:101290002FFE00F055FD01F02BF901F051FD00F09B
:1012A000BFF800F0A5F94FF47A7002F029FDFAE7D3
:1012B0000008002004080020142E00200000000078
:1012C00000B5084B83B01A680192019A1B689A42D4
:1012D00005D1054803B05DF804EB01F039BFFFF715
:1012E000EFFF00BF00080020F0F30008000000003E
:1012F0002DE9F0412DED068B3E4D3F4BAA693F494C
:101300001B683F4F9FED3F8ADFED3F8A9FED3F9A7D
:10131000DFED3F9ADFED3FAA9FED3FAA916182B0DA
:10132000019311E0A0F5A07000B2400004EB0008AA
:10133000241A204601F0ECFC404601F0D1FC06F1F5
:101340000A01304602F01CFD202383F3118802F0CD
:10135000DFFF01F09DFFAE6A01F0BAFF02F0F0FF7F
:101360002B68AB4207D0AA699B6892689A4202D266
:101370002A4801F0EDFE002484F3118800F008F9FA
:10138000F2EE047A30EE670AF0EEC07AF4EEC87A34
:10139000F1EE10FA13D4D7ED007A70EE277AF4EE5E
:1013A000E87AF1EE10FA14DDC7ED008AF0EE4A7A21
:1013B000E0EE097AFDEEE77A17EE903A1CB200F003
:1013C000FFF86FF49B73C3189BB2122BAAD8A046E8
:1013D000AFE7F4EEE97AF1EE10FA06D4B0EE0C7A4B
:1013E000C7ED007A67EE877AE2E7F0EE6A7AC7ED3A
:1013F000009ADDE7F01F00200008002010F400082C
:1014000008120020CDCCCC3D92249D4300004844DE
:1014100092249DC3008089C40080894420F4000880
:1014200010B50A4C0A4B22680A4884B04FF41E716A
:10143000039200220092402202F00AFC039A2368E1
:101440009A4201D104B010BDFFF73AFF0008002016
:10145000F11200081012002000000000000000003F
:10146000F0B5184A184B926918499161ADF5237D82
:1014700001AD1B68A19328464FF4207200210AF0A9
:10148000DFFD134C0126204602F0E2FF00F030FDA4
:101490000022835C8118DB004F7803F01803C2F34D
:1014A0004E01023203EB5713B2F5A06F6B54F0D12B
:1014B00016B986F00106E6E74FF420712846FFF7DB
:1014C000A7FEF6E7F01F00200008002040F4000807
:1014D00010080020000000000000000000000000D4
:1014E00080B5234C234AA36923491668996186B0C5
:1014F000022320250A220021009305964FF4207331
:10150000CDE9015530201D4E1D4F00F099FD00F032
:101510009FFC002000F0D4FCB04600F039FC13E042
:1015200002F0AEFA01F0D4FE02F00AFF2368A342F3
:1015300007D0A2699B6892689A4202D2384601F0AD
:1015400007FE002383F3118800F0FAFC00F060FC32
:1015500085F3118802F0DCFE01F09AFE01F068FFCD
:10156000B368002BDCDC404602F0AAFFD8E700BFDE
:10157000F01F00200008002030F4000810080020B0
:1015800050F400080000000000000000000000000F
:1015900000B5074B83B01A680192019A1B689A4202
:1015A00004D1B2EE040A03B05DF804FBFFF788FE35
:1015B0000008002000000000000000000000000003
:1015C00000B5074B07491A68088883B00192019A51
:1015D0001B689A4202D103B05DF804FBFFF770FE6E
:1015E000000800201C08002000000000000000008F
:1015F00030B50E4C0E4B22680E4885B00025039284
:101600004FF4AF614022009502F022FB0A4B009597
:1016100040220A484FF41E7102F01AFB039A236815
:101620009A4201D105B030BDFFF74AFE0008002004
:101630006114000800170020E1140008881400203D
:1016400030B5104D81682B680F4A83B001930B6849
:1016500023F001030B608168946A03E0936A1B1B0B
:10166000C72B09D8086810F00100F7D1019A2B6840
:101670009A4204D103B030BD4FF0FF30F6E7FFF7D8
:101680001FFE00BF00080020F01F00200000000027
:1016900030B5184D83B02B68019311F00C0F044640
:1016A0000AD00378032B13D00622636822709A684D
:1016B0001AB100212046904763685B688BB101999D
:1016C0002A68914213D1204603B0BDE83040184744
:1016D000FFF7B6FF0622636822709A68002AE8D1F5
:1016E000EBE7019A2B689A4201D103B030BDFFF7B6
:1016F000E7FD00BF0008002000000000000000001F
:10170000F0B5284D83B02B68019302F0C9FD01F0BC
:101710003FFE254B1E69F20715D55A69234C42F04E
:1017200001025A612778BB1F012B2AD90522636861
:1017300022701B680BB120469847042F27D0022F38
:1017400025D003232370B30710D5174A174C5369CC
:1017500043F0020353612378032B1DD063689B6819
:101760000622227013B101211048984701F038FE7B
:10177000019A2B689A4213D103B0BDE8F04003F000
:101780005FBD019A2B689A420AD103B0F0BD0223D3
:101790002370B307EAD5D8E72046FFF751FFDDE70E
:1017A000FFF78EFD0008002000000550781C002087
:1017B00030B50B4D0B4C2B6883B02046019300F0E5
:1017C0002FF9019A2B680848084D094921619A426E
:1017D000C4E9025001D103B030BDFFF771FD00BF75
:1017E00000080020781C0020ACFF00080000055015
:1017F000165502020000000000000000000000007A
:101800002DE9F0412F4C0578266882B0012D019614
:1018100006D0019A23689A4252D102B0BDE8F08105
:10182000294DA842F5D10E4690461F46274AE86842
:101830002B460C2106F0ECFA002839D1D5E902320A
:10184000126828339360EB681A68042151611B68A1
:10185000C3F80C80EB681A6817611B68B6085E60F5
:101860002B694FB343F480232B61E968184A096858
:101870000B60EB6819680B6843F001030B60536B56
:1018800043F0010353630B214E2005F0A1FFD5E97E
:101890000113DA6842F00102DA60DA6842F002020B
:1018A000DA60CA6822F4804222F001021A60B0E7CE
:1018B000084801F04DFCC1E723F480232B61D4E7F5
:1018C000FFF7FEFC00080020781C0020911600089D
:1018D0000038024060F40008000000000000000032
:1018E00030B5184C0378226883B0022B019205D0E2
:1018F000019A23689A4223D103B030BD124B98421B
:101900000546F5D18168114A0B6823F4804323F022
:1019100001030B608168CB6823F00F03CB60536B2E
:1019200023F0010353634E2005F07AFF019A2368E8
:101930009A4205D1E86803B0BDE8304006F0D0BA5D
:10194000FFF7BEFC00080020781C00200038024091
:1019500000B50F4B0278196883B0022A01910ED1AD
:1019600081680A6842F002020A6081680A6842F4EB
:1019700080420A6081680A6842F001020A60019AA6
:101980001B689A4202D103B05DF804FBFFF798FC94
:10199000000800200000000000000000000000001F
:1019A00000B50F4B0278196883B0022A01910ED15D
:1019B00081680A6822F002020A6081680A6842F4BB
:1019C00080420A6081680A6842F001020A60019A56
:1019D0001B689A4202D103B05DF804FBFFF770FC6C
:1019E00000080020000000000000000000000000CF
:1019F00000B5074B83B01A680192019A1B689A429E
:101A000004D103B05DF804EBFFF7D2BEFFF758FC3A
:101A1000000800200000000000000000000000009E
:101A200000B5084B83B01A68019201220270019A36
:101A30001B6800219A42416002D103B05DF804FBAB
:101A4000FFF73EFC0008002000000000000000003E
:101A50002DE9F043254D83B02C680194DDF82890E2
:101A60000F4616469846044618B111B1204B9A42CB
:101A70002FD9204801F06CFB202383F3118802F05A
:101A800047FC01F005FC2378012B02D0194801F036
:101A90005FFB4246314620464B466760FFF7B0FE8B
:101AA0000223237001F014FC02F04AFC124B1A6866
:101AB0009A4204D0996993688A689A420FD30023A6
:101AC00083F31188019A2B689A420CD103B0BDE8C8
:101AD000F0839307CDD1B8F1000FCDD1C9E7074806
:101AE00001F036FBEBE7FFF7EBFB00BF000800203F
:101AF000FCFF030090F40008F01F002080F40008B1
:101B000030B51C4D83B02B680193044658B3202395
:101B100083F3118802F0FCFB01F0BAFB2378022B5F
:101B200002D0154801F014FB2046FFF7D9FE01232F
:101B3000237001F0CDFB02F003FC104B1A689A42AF
:101B400004D0996993688A689A4208D3002383F382
:101B50001188019A2B689A4209D103B030BD084818
:101B600001F0F6FAF2E7044801F0F2FACFE7FFF7E6
:101B7000A7FB00BF00080020A0F40008F01F002011
:101B800080F40008000000000000000000000000D9
:101B900030B51C4D83B02B680193044658B3202305
:101BA00083F3118802F0B4FB01F072FB2378022B5F
:101BB00002D0154801F0CCFA2046FFF7C9FE0423F5
:101BC000237001F085FB02F0BBFB104B1A689A42B0
:101BD00004D0996993688A689A4208D3002383F3F2
:101BE0001188019A2B689A4209D103B030BD084888
:101BF00001F0AEFAF2E7044801F0AAFACFE7FFF7E6
:101C00005FFB00BF00080020B0F40008F01F0020B8
:101C100080F4000800000000000000000000000048
:101C200030B51C4D83B02B680193044658B3202374
:101C300083F3118802F06CFB01F02AFB2378022B5E
:101C400002D0154801F084FA2046FFF7A9FE0323CD
:101C5000237001F03DFB02F073FB104B1A689A42AF
:101C600004D0996993688A689A4208D3002383F361
:101C70001188019A2B689A4209D103B030BD0848F7
:101C800001F066FAF2E7044801F062FACFE7FFF7E5
:101C900017FB00BF00080020D0F40008F01F002050
:101CA00080F40008000000000000000000000000B8
:101CB00000B5064B83B01A680192019A1B689A42DC
:101CC00002D103B05DF804FBFFF7FAFA0008002028
:101CD00000B5064B83B01A680192019A1B689A42BC
:101CE00002D103B05DF804FBFFF7EAFA0008002018
:101CF00010B5104C104B226882B0019201221A706C
:101D0000202383F3118802F033FB01F001FB0B4821
:101D100002F036FE01F01CFB02F042FB002383F3CD
:101D20001188019A23689A4201D102B010BDFFF7D1
:101D3000C7FA00BF00080020981C002020080020DF
:101D400030B50E4D0E4C2B6883B00193FFF750FE5B
:101D5000206808B109F0ACFE4FF4964009F0A0FEEF
:101D600001992A682060B0FA80F35B099142C3F1BF
:101D7000000001D103B030BDFFF7A2FA0008002037
:101D8000901C002000000000000000000000000087
:101D900030B5174D174C2B78226885B0012B039274
:101DA00020D000F0D5FB144B1B78ABB9B0F5964FA3
:101DB00015D8124A124B12681B681249009202464B
:101DC0001148FFF745FE01232B700020039A23687A
:101DD0009A420BD105B030BDB0F5165FE9D94FF08E
:101DE000FF30F3E70848FFF78BFEDAE7FFF768FA02
:101DF0008D1C0020000800208E1C0020941C002058
:101E0000901C0020E0F40008781C00200000000076
:101E100010B50B4C0B48236882B0019302F078FC9C
:101E2000094802F01DFE019A23689A4205D105482F
:101E300002B0BDE8104002F0A3BCFFF741FA00BFBA
:101E400000080020280800202008002000000000D2
:101E500030B5154D154C164B2268286883B0019299
:101E600001221A7008B109F023FE4FF4165009F050
:101E700017FE286098B10F4D286808B109F018FEC8
:101E80004FF4165009F00CFEB0FA80F35B0928609D
:101E90005842019A23689A4204D103B030BD4FF0F2
:101EA000FF30F6E7FFF70CFA901C00200008002036
:101EB0008E1C0020941C0020000000000000000088
:101EC00000B5074B07491A68087083B00192019A60
:101ED0001B689A4202D103B05DF804FBFFF7F0F9EA
:101EE000000800208C1C0020000000000000000002
:101EF00000B50D4A0D4B1278196883B0019142B1BB
:101F00000B4AD26812681268120302D4094A106898
:101F100001E0094A1068019A1B689A4202D103B095
:101F20005DF804FBFFF7CCF98E1C002000080020B0
:101F3000781C0020941C0020901C00200000000051
:101F400000B50E4A0E4B1278196883B001914AB160
:101F5000019A1B689A420FD10A4803B05DF804EB5E
:101F6000FFF75EBE019A1B689A4205D1054803B08F
:101F70005DF804EBFFF70CBEFFF7A2F98C1C002004
:101F800000080020781C0020000000000000000075
:101F900070B5274D82B02B680193064601220321BC
:101FA0006E2000F04DFB044630B1019A2B689A4236
:101FB00020463AD102B070BD32464E216E2000F06C
:101FC0003FFB04460028F0D1442E07D00246B7213B
:101FD0006E2000F035FBB8B10446E6E70122B721D8
:101FE0006E2000F02DFB0028F6D1224603216E2042
:101FF00000F026FB0028EFD1032211216E2000F013
:102000001FFB78B10446D0E7224603216E2000F082
:1020100017FB0028E0D10A2211216E2000F010FBEE
:102020000028D9D1034B1E71BFE7FFF749F900BF64
:10203000000800209C1C00200000000000000000A0
:102040002DE9F04F8FB0DFF80084DDF860C0D8F8DC
:1020500000400D940CF1FF355C1EB3F5207F9DF818
:1020600064909DF868B00C44154400F21282BCF5EF
:10207000F07F00F20E82B1F5207F0E4600F2128250
:10208000B2F5F07F174600F21082A14280F0048280
:10209000B4F5207F00F20082AA4280F00082B5F5FC
:1020A000F07F00F2FC81B9F1400F824600F0B08170
:1020B000B9F1800F23D0B9F1200F00F09C810023EB
:1020C000CDE90033BBF1400F2FD0BBF1800F00F002
:1020D000CB81BBF1200F00F0B9810023CDE90233A1
:1020E000002203216E2000F0ABFAA0B30D9AD8F8BD
:1020F00000309A4240F0E2810FB0BDE8F08F9A07BD
:1021000040F0D681CC4A8C085900661CA2FB010124
:10211000A2FB030204EB930406EBD2030093BBF192
:10212000400F06EBD1030193CFD11CF0010F40F01B
:10213000C281C14B7D084FEA4C026F1CA3FB021207
:10214000A3FB0C1307EB9303029307EB920305EB3E
:102150005C050393C4E702465B216E2000F070FA31
:102160000028C3D15046FFF713FF0028BED1024616
:1021700003216E2000F064FA0028B7D1C6F30723CC
:102180001A4608216E20049300F05AFA0028ADD1B7
:10219000F3B21A4609216E20059300F051FA002887
:1021A000A4D1C7F307231A460A216E20069300F034
:1021B00047FA00289AD1FBB21A460B216E200793EA
:1021C00000F03EFA002891D1C4F307231A460C21EF
:1021D0006E20089300F034FA002887D1E3B21A4643
:1021E0000D216E20099300F02BFA00287FF47EAFBA
:1021F000C5F307231A460E216E200A9300F020FA39
:1022000000287FF473AFEBB21A460F216E200B93B8
:1022100000F016FA00287FF469AF049A35216E2089
:1022200000F00EFA00287FF461AF059A36216E2087
:1022300000F006FA00287FF459AF089A37216E2083
:1022400000F0FEF900287FF451AF099A38216E2082
:1022500000F0F6F900287FF449AF069A39216E2084
:1022600000F0EEF900287FF441AF079A3A216E2082
:1022700000F0E6F900287FF439AF0A9A3B216E207E
:1022800000F0DEF900287FF431AF0B9A3C216E207C
:1022900000F0D6F900287FF429AF009B3D21C3F35D
:1022A00007226E2000F0CCF900287FF41FAF9DF8C4
:1022B00000203E216E2000F0C3F900287FF416AF05
:1022C000019B3F21C3F307226E2000F0B9F90028DB
:1022D0007FF40CAF9DF8042040216E2000F0B0F98F
:1022E00000287FF403AF029B4121C3F307226E2035
:1022F00000F0A6F900287FF4F9AE9DF808204221ED
:102300006E2000F09DF900287FF4F0AE039B43217E
:10231000C3F307226E2000F093F900287FF4E6AEA5
:102320009DF80C2044216E2000F08AF900287FF4EB
:10233000DDAE012203216E2000F082F900287FF437
:10234000D5AE4A4693216E2000F07AF900287FF43A
:10235000CDAE5A4694216E2000F072F900287FF429
:10236000C5AE012203216E2000F06AF900287FF437
:10237000BDAE0134A31B07EE103ADFED307AB8EEA4
:10238000477ABAF1440F77EEC77A00F09980B0EE41
:10239000006AF2EE006AE7EE066A77EEA77AB0EE20
:1023A000667A67EE877ADFED266A87EEA67AFCEE1C
:1023B000C77ACDED007A009B9521C3F307226E20EA
:1023C00000F03EF900287FF491AE9DF800209621A0
:1023D0006E2000F035F900287FF488AE194B0135E6
:1023E000EF1BA41B5F801C8083F804A083F805907A
:1023F00083F806B07AE610495A00A1FB030306EB06
:102400005303A1FB0212009306EB5203019359E61A
:10241000D9074DD4084A74085900661CA2FB010173
:10242000A2FB030204EB530406EB9203009306EBBA
:102430009103019346E600BFABAAAAAA000022447A
:102440000000A3449C1C002000080020244A4FEAFE
:102450004C03A2FB0C1CA2FB032307EB530307EB6B
:102460005C02029203933BE61CF0030F23D11C4B4A
:10247000BD084FEA4C026F1CA3FB0212A3FB0C1316
:1024800007EBD303029307EBD20305EB9C05039301
:1024900026E66FF0070029E66FF0030026E66FF0EE
:1024A000040023E66FF0010020E66FF002001DE655
:1024B0006FF005001AE66FF0060017E6FEF700FF62
:1024C000F2EE006A37EE267ADFED066A67EE277ACB
:1024D00087EEA67AFCEEC77ACDED007A6BE700BFF7
:1024E000ABAAAAAA000024440000000000000000DB
:1024F00010B5114C86B02368059300F081F80F49A0
:102500000F4803F0B5FA012200210D4803F048FB03
:1025100020237822CDE901330092A023B422F021B8
:102520000220FFF78DFD059A23689A4201D106B07B
:1025300010BDFEF7C5FE00BF00080020F0F4000843
:10254000F82D002000000000000000000000000046
:1025500010B50A4B0A4A1988146858881B7982B04A
:10256000442B019400FB01F00199136818BF40004F
:10257000994201D102B010BDFEF7A2FE9C1C0020C2
:102580000008002000000000000000000000000023
:1025900070B5164E16483368154D82B005224FF4BB
:1025A0008071019307F0E4F820246B6983F4807351
:1025B0006B61012001F0A4FB631E13F0FF04F4D152
:1025C0004FF4807140F206222983094807F0D0F8C1
:1025D000019A33689A4206D10649074802B0BDE81D
:1025E000704003F08DB8FEF76BFE00BF00080020BE
:1025F0000004024030F50008702A002000000000AE
:1026000000B50C4A0C4B1278196883B0012A01916D
:10261000019A1B6804D09A4209D103B05DF804FB0B
:102620009A4204D103B05DF804EBFFF7B1BFFEF7A7
:1026300047FE00BF702A00200008002000000000B4
:10264000F0B5214C214E89B0336807930746002529
:1026500020468DF818108DF819208DF8145003F0CD
:1026600067F92378012B0CD0042205AB0195029267
:1026700000933946022306AA204603F0E9F80546EE
:1026800048B9114803F074F90020079A33689A4258
:1026900017D109B0F0BD204603F0C2F823780C4AE8
:1026A000052B106004D0084803F062F968B2ECE72B
:1026B000204603F06DF82378012BF4D1FFF768FF73
:1026C000F1E7FEF7FDFD00BF702A002000080020A2
:1026D000A41C00200000000000000000000000001A
:1026E0002DE9F043254E83B034680194042A9DF807
:1026F0002890144605460F46984639D9B9F1000F7F
:1027000014BF00224FF08052640002EB0863013CCA
:102710001C4405F00F0527F01F07202383F31188C1
:1027200001F0F6FD3D4300F0B3FD154B1035DD60C3
:102730001C6100F0CDFD01F003FE124B1A689A42B5
:1027400004D0996993688A689A420DD3002383F371
:102750001188BFF36F8FBFF34F8F019A33689A428E
:102760000AD103B0BDE8F083074800F0F1FCEDE7C3
:10277000064800F0EDFCC1E7FEF7A2FD00080020CE
:1027800090ED00E0F01F0020C0F50008A0F5000863
:1027900030B5224D224C2B68224A85B003936368E2
:1027A00043F004036360536A43F48033536220238D
:1027B00083F3118801F0ACFD00F06AFD17221A4B7B
:1027C000E260236100F084FD01F0BAFD174B1A6846
:1027D0009A4204D0996993688A689A4218D3002073
:1027E00080F31188BFF36F8FBFF34F8F03231D2238
:1027F00000904FF00051FFF773FF094A536843F010
:1028000001035360039A2B689A4205D105B030BD8D
:10281000074800F09DFCE2E7FEF752FD00080020AB
:1028200090ED00E000ED00E009000010F01F002036
:10283000C0F50008000000000000000000000000DB
:1028400070B51A4D1A4C1B4E0FCD0FC49EB02A689E
:10285000336822801D93EFF30981682203A8FEF7F5
:10286000D7FA154B9D6AAA0714D4EB0708D5124B6B
:1028700008995B6B114A00910D48802109F030FCEA
:102880001D9A33689A420FD109481EB0BDE87040C6
:1028900000F05EBC099A5B6B0092A4F11000084A3C
:1028A000802109F01DFCE0E7FEF70AFD84F5000831
:1028B000A81C00200008002000ED00E060F50008E2
:1028C00040F50008000000000000000000000000CB
:1028D00000B51F4B0278196883B00191E2B11D4A1F
:1028E0004FF4005111834278EAB11A4A4FF48051F3
:1028F00011838278F2B1174A4FF480411183C27874
:10290000FAB9144A4FF400415183019A1B689A4264
:102910001CD103B05DF804FB0E4A4FF40051518303
:102920004278002AE1D10B4A4FF4805151838278DA
:10293000002AE0D1074A4FF480415183C278002A2F
:10294000DFD0044A4FF400411183DEE7FEF7B8FC04
:1029500000080020001002400000000000000000FD
:1029600000B51F4B0278196883B00191E2B11D4A8E
:102970004FF4007111834278EAB11A4A4FF4807122
:1029800011838278F2B1174A4FF400611183C27843
:10299000FAB9144A4FF480615183019A1B689A4234
:1029A0001CD103B05DF804FB0E4A4FF40071518353
:1029B0004278002AE1D10B4A4FF48071518382782A
:1029C000002AE0D1074A4FF400615183C278002AFF
:1029D000DFD0044A4FF480611183DEE7FEF770FC1C
:1029E000000800200010024000000000000000006D
:1029F00030B50C4A0C4B116883B04FF4005501916F
:102A00004FF480544FF400414FF480405D835C8369
:102A10005883598301991368994201D103B030BD9D
:102A2000FEF74EFC000800200010024000000000ED
:102A300030B50C4A0C4B116883B04FF4007501910E
:102A40004FF480744FF480614FF400605D835C83C9
:102A50005883598301991368994201D103B030BD5D
:102A6000FEF72EFC000800200010024000000000CD
:102A700010B50B4C0B48236882B0992200210193BA
:102A800003F08EF8019A23689A4206D10548002186
:102A900002B0BDE8104003F06BB9FEF711FC00BFB7
:102AA00000080020C02D00200000000000000000F1
:102AB00010B50B4C0B48236882B09922002101937A
:102AC00003F06EF8019A23689A4206D10548002166
:102AD00002B0BDE8104003F04BB9FEF7F1FB00BFB8
:102AE00000080020DC2D0020000000000000000095
:102AF00000B5084B83B01A680192019A1B689A428C
:102B000006D10548002103B05DF804EB03F098B846
:102B1000FEF7D6FB00080020C02D002000000000BA
:102B200000B5084B83B01A680192019A1B689A425B
:102B300006D10548002103B05DF804EB03F080B82E
:102B4000FEF7BEFB00080020DC2D00200000000086
:102B500070B51A4C1A4E2378326882B0022B01925B
:102B6000A26811D165781748013505F0070500EB1B
:102B70008500904763686570013B6360019A336824
:102B80009A4219D102B070BD012B08D00199336867
:102B9000994211D10C4802B0BDE8704010476578E9
:102BA0000848013D05F0070500EB85009047636884
:102BB000657001336360E1E7FEF782FB401D002092
:102BC0000008002060F6000850F600080000000031
:102BD00070B51A4C1A4E2378326882B0012B0192DC
:102BE000A26811D165781748013505F0070500EB9B
:102BF000850090476368657001336360019A3368AC
:102C00009A4219D102B070BD022B08D001993368E5
:102C1000994211D10C4802B0BDE870401047657868
:102C20000848013D05F0070500EB85009047636803
:102C30006570013B6360E1E7FEF742FB281D002061
:102C40000008002060F6000850F6000800000000B0
:102C500030B51F4D85B02B68039340F24C43994229
:102C6000044626DCA3F69803994211DB4B00002BA7
:102C700029D10370036998474FF47A71039A2B683E
:102C80009A421ED1606905B0BDE8304002F040BFF5
:102C9000104B02225B42227040F2892293420E497D
:102CA00091FBF3F189B207DC0191E3689847019940
:102CB000E4E7012303702D210191236998470199CD
:102CC000DCE7FEF7FDFAE4DD01220270E4E700BF75
:102CD0000008002068F7FFFFA08601000000000048
:102CE00000B5084B83B01A680192019A1B689A429A
:102CF00006D10146044803B05DF804EBFFF7A8BF16
:102D0000FEF7DEFA00080020281D00200000000069
:102D100000B5084B83B01A680192019A1B689A4269
:102D200006D10146044803B05DF804EBFFF790BFFD
:102D3000FEF7C6FA00080020401D00200000000039
:102D400070B51D4E1D4A1E4B30681E491E4C9160C9
:102D500082B00021D46001901C4C1D481D4D9D6027
:102D6000117051705160106154611B481B4A1C4D19
:102D7000D8601C48197059705960C3E90425FFF7E1
:102D8000A7FD1848FFF7ECFD1749204602F070FE3A
:102D9000204602F0A5FF2846144902F069FE019A78
:102DA00033689A4205D1284602B0BDE8704002F06F
:102DB00097BFFEF785FA00BF00080020401D0020E5
:102DC000281D0020D1280008712A0008C02D0020ED
:102DD000F12A000861290008B12A0008212B000807
:102DE000DC2D002050F6000810F60008D0F5000891
:102DF0000A490B4B09680B4A82B0202001914021FF
:102E000058834FF4806559834FF400644FF4804039
:102E100004215D835C8358835183FEE70008002012
:102E2000000C02400004024000000000000000000E
:102E300000B50F4B83B01868019002290CD003290C
:102E40000CD001290B4818BF0020019A1B689A4238
:102E50000BD103B05DF804FB0748F6E7032A96BFE1
:102E60000648002000EBC200EFE7FEF729FA00BF9A
:102E70000008002060F7000800F7000810F80008BC
:102E800070B5154C82B02368019302291CD10D4600
:102E90000646202383F3118801F06AFA00F038FA1D
:102EA00030460E4A012104F0EBF829460C4A304620
:102EB00004F0E6F80B4803F0E3FE00F049FA01F0F5
:102EC0006FFA002383F31188019A23689A4201D193
:102ED00002B070BDFEF7F4F90008002080F600088B
:102EE000B0F60008581D002000000000000000009F
:102EF00030B5134D134C2B68134883B0019303F086
:102F000037FE1249104803F063FE226D936B23F4E1
:102F1000002393634FF47A7000F0F2FE20460C49D0
:102F200004F05EF8226D936B43F400239363019ADF
:102F30002B689A4201D103B030BDFEF7C1F900BF42
:102F400000080020B02A0020581D0020E0F60008EC
:102F5000F0F6000800000000000000000000000083
:102F600000B5084B83B01A680192019A1B689A4217
:102F700005D1054803B05DF804EB01F0C9BBFEF7CD
:102F80009FF900BF000800203C080020000000005E
:102F900000B5084B83B01A680192019A1B689A42E7
:102FA00005D1054803B05DF804EB01F0E9BBFEF77D
:102FB00087F900BF000800203C0800200000000046
:102FC00070B50D4C82B0236801930D1E06460DDDD1
:102FD000284602F0ADF818B90C2333604FF0FF30EB
:102FE000019A23689A4205D102B070BD034800F0EF
:102FF000AFF8EDE7FEF764F90008002030F80008AC
:1030000000B5064B83B01A680192019A1B689A4278
:1030100002D103B05DF804FBFEF752F9000800206E
:1030200000B5064B83B01A680192019A1B689A4258
:1030300002D103B05DF804FBFEF742F9000800205E
:10304000024B82B01B680193FEE700BF000800201E
:1030500000B5044B04481B6883B0019300F078F876
:10306000FEE700BF0008002040F800080000000054
:10307000024B82B01B680193FEE700BF00080020EE
:10308000F0B5294E294B3268294885B000240392B7
:103090009C60D968274A4FF6FF0529400A43DA6049
:1030A000C2682549254D42F08072C2600A6842F02C
:1030B00001020A6010202022D87783F8222000F035
:1030C000DFFA00F045FA01F073F802F009F802F0B7
:1030D00077F801F0C5F800F0FBF9402105F58860AC
:1030E00000F01EFD0127164BC36180F82070A86117
:1030F00000F0A6F884F3118862B6AB69114A9A61B0
:103100004FF4C4713A46104B009405F59D6000F0F1
:103110009FFD039A33680D4981619A4201D105B040
:10312000F0BDFEF7CDF800BF0008002000ED00E084
:10313000F0ED00E00003FA05001000E0F01F0020B1
:1031400000040020E0F900087130000860F8000871
:1031500000B5054B83B01B680193044672B6FFF7B8
:1031600047FE024BDC62FEE700080020F01F002053
:103170002DE9F047DFF890A0224DDAF8003082B058
:10318000019300F055F9AB6993F8232012B1013A8D
:1031900083F823205A6ADFF8748001325A6200F003
:1031A00047F9AB6AEA6901334245AB6220D09368C4
:1031B000013B9360EC69A668D6B94FF020092368FB
:1031C000E768E660C3F804802368EB6100F0C0F8AC
:1031D00001F0E6F886F311882069B84789F3118871
:1031E00001F0C6F800F094F8EC69A368002BE6D073
:1031F000019ADAF800309A4202D102B0BDE8F087B5
:10320000FEF75EF8F01F0020000800200C200020D0
:1032100010B5094C094A236882B00193516853687C
:103220005B1A9842FBD8019A23689A4201D102B0F6
:1032300010BDFEF745F800BF00080020001000E0B8
:1032400000B50E4A0E4B116B186883B0019009B996
:10325000526B4AB1019A1B689A420CD1094803B0DB
:103260005DF804EBFFF774BF019A1B689A4202D124
:1032700003B05DF804FBFEF723F800BFF01F002049
:103280000008002070F800080000000000000000A6
:1032900030B50B4C0B4D236B2A6883B001920BB9F0
:1032A000636B13B10848FFF753FF019A2B680121A4
:1032B0009A42616301D103B030BDFEF701F800BF4F
:1032C000F01F002000080020A0F800080000000007
:1032D00030B50C4C0C4D236B2A6883B0019253B966
:1032E000636B002B07DD019A2B6800219A42616312
:1032F00005D103B030BD0548FFF72AFFF3E7FDF71E
:10330000DFFF00BFF01F002000080020C0F8000809
:1033100030B50B4C0B4D236B2A6883B0002B019208
:1033200001DD636B13B10848FFF712FF019A2B68A8
:1033300001219A42616301D103B030BDFDF7C0FFA6
:10334000F01F002000080020B0F800080000000076
:1033500030B50C4C0C4D236B2A6883B0002B0192C6
:103360000ADD636B002B07DD019A2B6800219A426E
:10337000616305D103B030BD0448FFF7E9FEF3E710
:10338000FDF79EFFF01F002000080020D0F8000885
:1033900030B50F4D83B02B680193202383F3118840
:1033A0000C4C236B002B01DB626B1AB10A48FFF750
:1033B000CFFE236B01332363002383F31188019A2B
:1033C0002B689A4201D103B030BDFDF779FF00BFF1
:1033D00000080020F01F002080F800080000000016
:1033E00030B50F4D83B02B680193202383F31188F0
:1033F0000C4C236B002B01DD626B1AB10A48FFF7FE
:10340000A7FE236B013B2363002383F31188019AFA
:103410002B689A4201D103B030BDFDF751FF00BFC8
:1034200000080020F01F002090F8000800000000B5
:1034300000B50F4A0F4B116B186883B0002901903B
:1034400009DB526B002A06DD019A1B689A420CD1F7
:1034500003B05DF804FB019A1B689A4205D1064847
:1034600003B05DF804EBFFF773BEFDF729FF00BF63
:10347000F01F002000080020E0F800080000000015
:1034800000B50E4A0E4B116B186883B0019049B914
:10349000526B002A06DD019A1B689A420CD103B0D8
:1034A0005DF804FB019A1B689A4205D1054803B0F8
:1034B0005DF804EBFFF74CBEFDF702FFF01F0020A4
:1034C00000080020F0F800080000000000000000E4
:1034D00010B5084A084B116882B040240191019947
:1034E000126818199142C3E90E4001D102B010BD13
:1034F000FDF7E6FE00080020F01F0020000000009D
:1035000010B51149114B0A6882B00192DA6B9C6ABE
:103510001460DA6B9C695460DA6B846A9460DA6BCD
:1035200090F820001073DA6B03F588601032824245
:1035300028BF03F14002DA63019A0B689A4201D175
:1035400002B010BDFDF7BCFE00080020F01F0020F7
:1035500010B50B4A0B4B116882B04FF0FF3401914C
:1035600000219962019811685C6203F11C02884293
:10357000C3E9072201D102B010BDFDF7A1FE00BFD3
:1035800000080020F01F00200000000000000000E4
:103590002DE9F041184E82B00546306801900C4686
:1035A00017469846FFF744FF05B3FFB1F4B1C5E9EC
:1035B00003781248C3699A68944204D91B68A41A14
:1035C0009A68A242FAD32B605A686A6015605D60FF
:1035D000AC609968019D3268091B95424FF0FF3439
:1035E0009960446206D102B0BDE8F0810448FFF75B
:1035F000AFFDDCE7FDF764FE00080020F01F0020AF
:1036000000F90008000000000000000000000000B9
:1036100030B5164D83B004462B680193FFF708FFC1
:10362000ECB1E368BBB12268A068936801990344D8
:103630009360D4E900231A6020682B680C4A6568FF
:10364000456099424FF000054FF0FF30E560506251
:1036500009D103B030BD0748FFF77AFDE3E705481D
:10366000FFF776FDDDE7FDF72BFE00BF0008002029
:10367000F01F002010F9000800000000000000000A
:1036800000B50A4A0A4B11681B6083B00020019103
:10369000019912685B609142C3E90433986002D1DA
:1036A00003B05DF804FBFDF70BFE00BF000800202F
:1036B000F01F0020000000000000000000000000DB
:1036C00030B5164D83B004462B680193FFF7B0FE6A
:1036D000ECB194F82030B3B10F2B14D00022A168C4
:1036E0000F4B84F820201B689A688A42FBD2236023
:1036F0005A686260146001992A685C6091422046B1
:1037000009D103B030BD0748FFF722FDE6E70548C1
:10371000FFF71EFDDDE7FDF7D3FD00BF0008002029
:10372000F01F002020F90008000000000000000049
:1037300070B5204D82B02B6801930446202383F39B
:10374000118800F015FEFFF7E3FD94F82030072BF9
:1037500011D8DFE803F0161010230A04100AA66A35
:10376000FFF766FEB3680133B360D4E900231A6043
:10377000D4E900325A604FF0FF33A3622046FFF7CE
:103780009FFFFFF7E5FD00F00BFE002383F3118898
:10379000019A2B689A420BD102B070BDA36A002235
:1037A0001A604FF0FF33A3622046FFF789FFE8E776
:1037B000FDF786FD0008002000000000000000006A
:1037C000F0B5194E194C336883B007460193FFF7E3
:1037D00057FEA569236885F82070142285F82320F8
:1037E0001A68226001215460284683F82010A361E2
:1037F000FFF786FE2946A06900F06AFDEFF3098312
:10380000EA69643B9A4202D90948FFF7A1FC019A90
:1038100033689A4206D1A069294603B0BDE8F0405A
:10382000FCF746BDFDF74CFD00080020F01F00200E
:1038300030F9000800000000000000000000000057
:10384000F0B5154C87B0236805930E460746FFF781
:1038500017FE731C18D0114D114AAB6931466846EA
:10386000FFF796FE3846FFF7ABFFFFF7E1FD039B3E
:1038700013B16846FFF7CCFE059A2368A9699A42FE
:10388000886A06D107B0F0BD3846FFF799FF034DAF
:10389000F2E7FDF715FD00BF00080020F01F002033
:1038A00031370008000000000000000000000000A8
:1038B000F0B51E4D1E4E2B6883B0044601930F4693
:1038C000FFF7DEFDB069A7628368A2689A421DD93E
:1038D000FFF7F6FE0123074684F82030B461FFF7B6
:1038E0000FFE3946204600F0F3FCEFF30983FA6936
:1038F000643B9A4214D8019A2B689A4214D13946F3
:10390000204603B0BDE8F040FCF7D2BC019A2B681A
:103910009A4209D1204603B0BDE8F040FFF7D0BE7F
:103920000448FFF715FCE6E7FDF7CAFC0008002095
:10393000F01F002030F90008000000000000000027
:1039400010B50E490E4B8A69086892F823101C685E
:103950008068926882B0019449B9904234BF0020D7
:103960000120019A1B689A4206D102B010BD904214
:1039700094BF00200120F4E7FDF7A2FCF01F002017
:10398000000800200000000000000000000000000F
:1039900070B5184C184E2368A5691A6822605460E7
:1039A000012283F8202082B01422316885F8232078
:1039B0002846A3610191FFF783FE2846FFF7A0FD8B
:1039C0002946A06900F084FCEFF30983EA69643BAF
:1039D0009A4202D90948FFF7BBFB019A33689A4221
:1039E00006D1A069294602B0BDE87040FCF760BC72
:1039F000FDF766FCF01F00200008002030F90008E9
:103A000070B51C4D1C4E2A68AC6913682B600121EF
:103A100082B05D60002082F82010AA613268A1683F
:103A200084F82000019200E01B689A688A42FBD863
:103A300023605A686260204614605C60FFF760FD96
:103A40002146A86900F044FCEFF30983E269643B76
:103A50009A4202D90948FFF77BFB019A33689A42E0
:103A600006D1A869214602B0BDE87040FCF720BC31
:103A7000FDF726FCF01F00200008002030F90008A8
:103A800010B50F4C82B023680193FFF7F9FCFFF7E4
:103A9000CFFC0C4B1A689B6992689B689A42019A0A
:103AA000236803D89A4208D102B010BD9A4204D1CB
:103AB00002B0BDE81040FFF7A3BFFDF701FC00BF57
:103AC00000080020F01F002000000000000000009F
:103AD00000B50E4A0E4B9269196892F8232083B004
:103AE000019142B1019A1B689A420DD103B05DF871
:103AF00004EBFFF785BF019A1B689A4204D103B01B
:103B00005DF804EBFFF744BFFDF7DAFBF01F002080
:103B1000000800200000000000000000000000007D
:103B2000F0B51A4A1A4D02610446816083B014232D
:103B300050692E68616484F8233002270023012134
:103B4000278484F82210C4E90F3304F16801A361CB
:103B5000019604F12C07636204F1500604F130036E
:103B600060610461C4E90C33E1613046E76254618D
:103B700000F0B6FA304600F0D3FA019A2B689A4268
:103B800002D1204603B0F0BDFDF79AFBF01F0020E4
:103B900000080020000000000000000000000000FD
:103BA00010B5094B82B01C680194884203D200F81A
:103BB000012B8142FBD1019A1B689A4201D102B0CC
:103BC00010BDFDF77DFB00BF0008002000000000D5
:103BD0002DE9F043184E83B0346801940546DDF8B2
:103BE00028900C4617469846FFF722FC15B1B4F50D
:103BF000BC7F19D21148FFF7ABFAA4F16401294444
:103C0000E960C1F84080EB68019AC3F844903368DA
:103C1000E9680B4808669A420CD13946284603B039
:103C2000BDE8F043FFF77CBF7F2FE3D8B8F1000F6A
:103C3000E3D1DFE7FDF744FB0008002080F900082E
:103C4000C9020008000000000000000000000000A1
:103C50002DE9F04FDFF8A48087B0D8F80040DDF8F8
:103C60004090059407468A46934600F1680604464C
:103C7000FF2504F8015BA642FBD107EB0A05A5422C
:103C800004D9552604F8016BA542FBD103932022E9
:103C900082F3118800F03CFBFFF7FAFA039BCDF8A2
:103CA00000905A4651463846FFF792FF00210446DD
:103CB000FFF7FEFDFFF70CFB00F042FB0D4B1A680F
:103CC0009A4204D0996993688A689A420BD3002378
:103CD00083F31188059AD8F800309A42204606D11D
:103CE00007B0BDE8F08F0448FFF732FAEFE7FDF7C1
:103CF000E7FA00BFF01F002040F90008000800208C
:103D000030B5184C83B0236801930546202383F314
:103D1000118800F0FDFAFFF7BBFA15B91248FFF75A
:103D200017FA29460820FFF78BFDFFF7D1FA00F0BC
:103D300007FB0E4B1A689A4204D0996993688A6807
:103D40009A4208D3002383F31188019A23689A4288
:103D500005D103B030BD0648FFF7FAF9F2E7FDF7E9
:103D6000AFFA00BF0008002050F90008F01F002043
:103D700040F9000800000000000000000000000002
:103D8000F0B51C4F83B03B68019304460E462023D8
:103D900083F31188184D00F0BBFAFFF779FAA96A8E
:103DA000331B0C1B9C4219D3FFF792FA00F0C8FAA0
:103DB0002B68AB4204D0AA699B6892689A4209D3E7
:103DC000002383F31188019A3B689A4230460FD151
:103DD00003B0F0BD0948FFF7BBF9F1E7741A02D14F
:103DE0000748FFF7B5F921460820FFF729FDDBE773
:103DF000FDF766FA00080020F01F002040F90008D7
:103E000050F9000800000000000000000000000061
:103E100070B5164B164E9C693268E36AA06282B098
:103E200004F12C05AB42019207D01A68E2621846F1
:103E3000FFF746FCE36AAB42F7D194F821309B07C9
:103E400005D1D4E904231A61D4E904325A610F2060
:103E5000FFF7B6FC019A33689A4205D1054802B0D3
:103E6000BDE87040FFF774B9FDF72AFAF01F002093
:103E70000008002090F90008000000000000000089
:103E800030B50C4C83B0236801930546202383F39F
:103E9000118800F03DFAFFF7FBF9019A23689A4276
:103EA00005D1284603B0BDE83040FFF7B1BFFDF7AC
:103EB00007FA00BF0008002000000000000000001A
:103EC000F0B50D4D0D4E03682A68B76983B00446FE
:103ED000019213B10A48FFF73BF927600320BC6247
:103EE000FFF76EFC019A2B68B1699A42886A01D18A
:103EF00003B0F0BDFDF7E4F900080020F01F00203A
:103F0000A0F9000800000000000000000000000010
:103F1000F0B5124D0368124A83B004462868019038
:103F20000E46976913B10F48FFF712F966B1276083
:103F3000019A2B68BC629A420ED13146032003B02D
:103F4000BDE8F040FFF77CBC019A2B689A424FF025
:103F5000FF3001D103B0F0BDFDF7B2F90008002039
:103F6000F01F0020B0F90008000000000000000071
:103F7000F0B5124D04682B6883B00193B4B194F886
:103F80002030032B06460F460CD100233360019AE4
:103F90002B68A7629A420FD1204603B0BDE8F040DB
:103FA000FFF78EBB0648FFF7D3F8EEE7019A2B68C0
:103FB0009A4201D103B0F0BDFDF782F9000800205C
:103FC000D0F9000800000000000000000000000020
:103FD00030B5104A83B01368019381B10E4B019D37
:103FE0009B69186044685C60236012684360954276
:103FF0000DD1042003B0BDE83040FFF721BC01998A
:10400000136899424FF0FF3001D103B030BDFDF786
:1040100057F900BF00080020F01F0020000000003A
:1040200070B5124D04682B6882B0A042019315D080
:1040300023680360586094F82030042B0E4602D0A9
:104040000B48FFF785F8019A2B68A6629A420BD1BC
:10405000204602B0BDE87040FFF732BB019A2B68E2
:104060009A4201D102B070BDFDF72AF90008002084
:1040700060F90008000000000000000000000000DF
:104080002DE9F041DFF850800468D8F8003082B0A4
:10409000A042019313D00F4F05460E4623682B60B4
:1040A0005D6094F82030042B02D03846FFF750F8BA
:1040B000A6622046FFF704FB2C68A542EED1019AC8
:1040C000D8F800309A4202D102B0BDE8F081FDF785
:1040D000F7F800BF60F900080008002000000000A9
:1040E00030B50B4B83B01A6801924FF0FF3202607B
:1040F00001991A680024002300259142C0E9044573
:10410000C0E90133C36001D103B030BDFDF7D8F879
:104110000008002000000000000000000000000077
:1041200000B5084B084A196883B001915168019A9B
:104130001B6881609A4202D103B05DF804FBFDF771
:10414000BFF800BF00080020001000E000000000E1
:10415000F0B51449144B0A68846883B00192134A7D
:104160005B68D2F8A864C2681B1BD0E90445013221
:104170009B1BC26042688360E61845F100079342CA
:10418000C0E9046709D80268934238BF0360019A06
:104190000B689A4203D103B0F0BD4360F7E7FDF727
:1041A0008FF800BF00080020001000E0F01F002082
:1041B00030B5114D114C2B6889B04FF0FF3107938A
:1041C000002300226846C4F8A834CDE901330393E4
:1041D0000023CDE904230091FFF7A2FF6846FFF713
:1041E000B7FF079A2B680299C4F8A8149A4201D124
:1041F00009B030BDFDF764F800080020F01F002072
:104200002DE97048134E144B326883B001925B68FD
:104210008B60D0E902411B1BD0E90445426814EBD6
:10422000030B45F1000C01319342C0E90231C0E9B2
:1042300004BC0AD80268934238BF0360019A33680D
:104240009A4204D103B0BDE870884360F6E7FDF7F9
:1042500037F800BF00080020001000E00000000058
:1042600030B50D4D0D4C2B6883B004F5976001936C
:104270000023C4F8B034C4F8B434FFF731FF019A16
:104280002B689A4206D104F59A6003B0BDE830402D
:10429000FFF726BFFDF714F800080020F01F0020EC
:1042A00000B50949094A0B6883B001930198D2F817
:1042B000B034096801338842C2F8B03402D103B087
:1042C0005DF804FBFCF7FCFF00080020F01F002055
:1042D00070B50D4C0D4A236882B00193019DD2F850
:1042E000B43424680133A542C2F8B43409D10E466F
:1042F00000F1500106F1500002B0BDE87040FFF738
:104300007FBFFCF7DDFF00BF00080020F01F00208A
:1043100000B5084B83B01A680192019A1B689A4253
:1043200005D1054803B05DF804EBFFF7F9BEFCF7D3
:10433000C7FF00BF00080020A824002000000000E4
:1043400000B5084B83B01A680192019A1B689A4223
:1043500005D1054803B05DF804EBFFF7F9BEFCF7A3
:10436000AFFF00BF00080020A824002000000000CC
:1043700000B5084B83B01A680192019A1B689A42F3
:1043800005D1054803B05DF804EBFFF7C9BEFCF7A3
:1043900097FF00BF00080020C0240020000000009C
:1043A00000B5084B83B01A680192019A1B689A42C3
:1043B00005D1054803B05DF804EBFFF7C9BEFCF773
:1043C0007FFF00BF00080020C02400200000000084
:1043D00070B51B4D82B004462B680193FFF750F86F
:1043E00044B3A3682268002B10DBA24203D0154817
:1043F000FEF7AEFEA368013B002BA3600CDB0020A0
:10440000019A2B689A4219D102B070BDA242EED037
:10441000013B002BA360F2DA0B4EB3699C621C6077
:1044200062685A60052013606360FFF7C9F9B369D9
:10443000986AE5E70348FEF78BFED2E7FCF740FFFA
:104440000008002010FA0008F01F00200000000003
:1044500030B5164C83B0236801930546202383F3BF
:104460001188FFF755FFFEF713FF2846FFF7B0FF4F
:104470000546FEF72DFFFFF763FF0D4B1A689A42C2
:1044800004D0996993688A689A4209D3002383F318
:104490001188019A23689A42284605D103B030BD9D
:1044A0000448FEF755FEF1E7FCF70AFF000800207C
:1044B000F01F002000FA00080000000000000000CB
:1044C00030B51C4D83B004462B680193FEF7B0FF56
:1044D0004CB3A3682268002B0FDBA24203D016481E
:1044E000FEF736FEA3680133002BA3600BDD019AB3
:1044F0002B689A421BD103B030BDA242EFD00133EA
:10450000002BA360F3DC20680199036823602A680C
:104510005C6091424FF00003836208D103B0BDE8B4
:104520003040FFF7CDB80448FEF712FED1E7FCF7A4
:10453000C7FE00BF0008002020FA000800000000AD
:1045400030B50B4D83B02B680193044650B1246005
:1045500001992A68646000239142A360236105D118
:1045600003B030BD0348FEF7F3FDF0E7FCF7A8FE0B
:104570000008002040FA00080000000000000000D1
:10458000F0B55D4E5D4B32689D6983B00446019283
:10459000FEF776FF002C00F08480A06823690028D5
:1045A00043D0002B40F39780854276D0AA68836879
:1045B0009A4208D990F820308260062B40D0072B11
:1045C00073D0002B5DD02746234603E09968AA6884
:1045D000914233D31B689C42F8D12F607B686B609B
:1045E00006201D607D60AC62FFF7EAF8A368AB426D
:1045F00002D04348FEF7ACFD2B6CA34202D04048EA
:10460000FEF7A6FD2369012B05D1019A33689A4272
:104610006FD103B0F0BD019A33689A4269D138482E
:1046200003B0BDE8F040FEF793BD002B58D1013335
:10463000A56023612B6CE3602C64E6E71F46CCE7A2
:10464000D0E900231A60D0E900325A60876A3B46FD
:1046500003E099688268914247D31B689F42F8D172
:1046600007607B68436018607860836AAA6898680E
:1046700083689342A7D290F820308260062B9ED1A7
:10468000DEE7D0E90023012180F820101A60D0E98C
:1046900000325A60FFF714F895E72369013323616C
:1046A000B3E71748FEF754FD77E7D0E900231A6017
:1046B000D0E900325A60876A3B4603E09968826815
:1046C000914214D31B689F42F8D107607B68436016
:1046D0001860786077E70A48FEF73AFDA06863E75C
:1046E0000748FEF735FD2369A1E71F46B8E71F46D7
:1046F000EBE7FCF7E5FD00BF00080020F01F0020FD
:1047000050FA000800000000000000000000000057
:1047100030B5154C83B0236801930546202383F3FD
:104720001188FFF7F5FDFEF7B3FD2846FFF728FFD8
:10473000FEF7CEFDFFF704FE0C4B1A689A4204D038
:10474000996993688A689A4208D3002383F3118891
:10475000019A23689A4205D103B030BD0448FEF7A0
:10476000F7FCF2E7FCF7ACFD00080020F01F00208A
:1047700030FA000800000000000000000000000007
:104780002DE9F043DFF800813C4FD8F80030BE69D6
:1047900083B005460193002864D0202383F3118859
:1047A000FFF7B6FDFEF774FD336C002B5ED09B68FF
:1047B000B34202D03248FEF7CBFC2B69002B49DD17
:1047C000013B2B615BBB336CAB4202D02C48FEF744
:1047D000BFFCEB683364FEF753FE2B689D423ED06E
:1047E000D6E910495CB1FEF74BFE23689C4203D02A
:1047F0009B68994538BF9946E468002CF3D1C6F808
:1048000008902B6801222A611A682A605560AB6003
:104810001A6CEA6018461D640021FFF749F8FEF79C
:1048200057FDFFF78DFD3B68BB4204D0BA699B681A
:1048300092689A420AD3002383F31188019AD8F828
:1048400000309A4217D103B0BDE8F0830D48FEF75F
:104850007FFCF0E70A48FEF77BFC2B69B0E70023FA
:10486000AB60DCE70648FEF773FC96E70448FEF70A
:104870006FFC336C9BE7FCF723FD00BFF01F0020AB
:1048800060FA000830FA000800080020000000006C
:104890002DE9F041DFF8D880334BD8F800209E692D
:1048A00082B005460192FEF7EBFD002D4FD0336C30
:1048B000002B52D09B68B34202D02C48FEF748FC34
:1048C0002B69002B3EDD013B2B61002B32D1336C79
:1048D000AB4202D02548FEF73BFCEB683364FEF7A1
:1048E000CFFD2B689D4223D0D6E910475CB1FEF77F
:1048F000C7FD23689C4203D09B689F4238BF1F4678
:10490000E468002CF3D1B7602868019901232B617A
:1049100003682B60D8F800205D60A860036CEB6032
:10492000914205641ED102B0BDE8F041FEF7C8BE59
:104930000023AB60019AD8F800309A4212D102B03D
:10494000BDE8F0810948FEF703FC2B69BBE7074887
:10495000FEF7FEFB336C002BACD10448FEF7F8FBEE
:10496000336CA7E7FCF7ACFCF01F002070FA0008DE
:10497000000800200000000000000000000000000F
:1049800070B5114E82B0044633680193FEF750FDB6
:104990009CB12068A0420AD06FF001050368236033
:1049A0005C60FEF78DFE85622068A042F6D1019A18
:1049B00033689A4205D102B070BD0448FEF7C8FBC7
:1049C000E7E7FCF77DFC00BF0008002090FA000834
:1049D0002DE9F0411E4F1F4E3B68B46982B0054679
:1049E0000193FEF74DFD65B3236C33B3B369D3F880
:1049F00040804046FFF74CFF2E46A5622B4603E061
:104A00009968A268914216D31B689D42F8D126602E
:104A10007368636007201C607460FEF7D1FE404637
:104A2000A46AFFF7ADFD019A3B689A4220460CD17B
:104A300002B0BDE8F0811E46E9E70748FEF788FBB3
:104A4000D4E70548FEF784FBCEE7FCF739FC00BF4E
:104A500000080020F01F0020B0FA0008000000004D
:104A600030B5164C83B0236801930546202383F3A9
:104A70001188FFF74DFCFEF70BFC2846FFF7A8FF57
:104A80000546FEF725FCFFF75BFC0D4B1A689A42C2
:104A900004D0996993688A689A4209D3002383F302
:104AA0001188019A23689A42284605D103B030BD87
:104AB0000448FEF74DFBF1E7FCF702FC000800207C
:104AC000F01F002080FA0008000000000000000035
:104AD00070B5184E82B00446336801930D46FEF758
:104AE000A7FC0CB3E16B94F8203029430A2BE16357
:104AF00016D00B2B05D0019A33689A4218D102B018
:104B000070BDA36A8B43F6D1019A336800219A42A3
:104B1000A1620DD1204602B0BDE87040FEF7D0BDC5
:104B2000A36A1942F0D1E6E70348FEF711FBD9E783
:104B3000FCF7C6FB00080020E0FA000800000000B7
:104B4000F0B5134F83B006463B6801930D46FEF760
:104B50006FFCB6B13468A6420DD0E3682B43E36026
:104B600015B12269134203D0D4E90101FFF7B0FF68
:104B70002468A642F1D1019A3B689A4205D103B05C
:104B8000F0BD0448FEF7E4FAE4E7FCF799FB00BF48
:104B900000080020C0FA000800000000000000002B
:104BA00070B50C4CC16082B0266801960A44006062
:104BB000019E02612268069D4060C0E9051196428F
:104BC0004FF00001C3618160056201D102B070BD88
:104BD000FCF776FB00080020000000000000000049
:104BE00030B50D4D83B02B6801930446FEF720FCD1
:104BF00001992A68E368A36100209142A060636183
:104C000007D120466FF0010103B0BDE83040FFF747
:104C100037BAFCF755FB00BF000800200000000079
:104C200070B5164D82B004462B6801930E46FEF710
:104C3000FFFBFEF7FDFBD4E905239A42A36816D0DB
:104C40000133511CA36061611670D4E904329A42A9
:104C50000AD220460021FFF7E3F90020019A2B68D1
:104C60009A4209D102B070BDE3686361F1E7002B9D
:104C7000E6D06FF00300F1E7FCF722FB000800200C
:104C8000F0B5234F83B03B68019304460E462023C2
:104C900083F31188FFF73CFBFEF7FAFAE36943B1AF
:104CA0002046984705E031462046FFF791F9051E5A
:104CB00010DBFEF7BDFBA368002BF4D0A1692069CF
:104CC0004A1C013B8242A360A26128BFE3680D78C1
:104CD00028BFA361FEF7FCFAFFF732FB0D4B1A6801
:104CE0009A4204D0996993688A689A4209D300234A
:104CF00083F31188019A3B689A42284605D103B094
:104D0000F0BD0548FEF724FAF1E7FCF7D9FA00BF39
:104D100000080020F01F0020F0FA0008000000004A
:104D20002DE9F04FDFF8F490044685B0D9F8000083
:104D300003908A461D46D4F81C809346002A60D012
:104D4000202383F311880193FFF7E2FAFEF7A0FA1C
:104D50002F4E0027B8F1000F07D02046C04704E0CF
:104D600029462046FFF734F960BBFEF761FBA368D4
:104D7000002BF5D0A269013B511CA161A3601378FF
:104D80000AF8013B2369A2699A4224BFE368A36140
:104D9000FEF79EFAFFF7D4FA3368B34204D0B26943
:104DA0009B6892689A4228D3002383F311880137C5
:104DB000BB4519D0019B83F31188FFF7A9FAFEF7D1
:104DC00067FAC7E7FEF784FAFFF7BAFA3368B34227
:104DD00007D0B2699B6892689A4202D20D48FEF7EA
:104DE000B7F9002383F31188039AD9F800309A4267
:104DF00038460AD105B0BDE8F08F0648FEF7A8F99D
:104E0000D2E70548FEF7A4F99AE7FCF759FA00BF84
:104E1000F01F0020F0FA000800FB00080008002046
:104E200070B50B4D82602E68C16082B0C0E9000091
:104E300001960A44019E02612A68069C9642C0E9D6
:104E40000511C0E9073401D102B070BDFCF738FA92
:104E5000000800200000000000000000000000002A
:104E600030B50D4D83B004462B680193FEF7E0FA90
:104E7000D4E9032301982968A2619B1A88426261E0
:104E8000A36007D120466FF0010103B0BDE83040B8
:104E9000FFF7F6B8FCF714FA000800200000000045
:104EA0002DE9F0412E4F82B03B68019304468846BD
:104EB0001646202383F31188FFF72AFAFEF7E8F954
:104EC00005E031462046FFF783F8051E2DDBFEF78F
:104ED000AFFAA368002BF4D06269013B511C6161F9
:104EE000A36082F80080D4E904329A4224BFE368C8
:104EF0006361E3690BB120469847FEF7E9F9FFF7D4
:104F00001FFA184B1A689A4204D0996993688A6804
:104F10009A421ED3002585F31188019A3B689A4274
:104F200028461AD102B0BDE8F081FEF7D1F9FFF7AB
:104F300007FA0C4B1A689A4207D0996993688A68F5
:104F40009A4202D20848FEF703F9002383F311883E
:104F5000E3E70548FEF7FCF8DCE7FCF7B1F900BF32
:104F600000080020F01F0020F0FA000800000000F8
:104F700070B5154E82B0044633680193FEF758FAB7
:104F8000FEF756FAD4E905329342A36815D020699A
:104F9000511C0133A360A161814215780AD22046D9
:104FA0000021FFF73DF82846019A33689A4209D15B
:104FB00002B070BDE368A361F1E7002BE7D06FF0AA
:104FC0000200F1E7FCF77CF9000800200000000077
:104FD0002DE9F04F04463B48D4F81C90006885B09A
:104FE0000D46039001931646002A61D04FF0200A27
:104FF0008AF31188FFF78CF9FEF74AF94FF00008A1
:10500000314FC346FEF714FAA368002B32D0626911
:10501000013B511C6161A3602B781370D4E9043209
:105020009A4224BFE36863610135B9F1000F01D0F2
:105030002046C847FEF74CF9FFF782F93B68BB42B0
:1050400007D0BA699B6892689A4202D21F48FEF75D
:105050007FF88BF31188013E08F101081FD08AF315
:105060001188FFF755F9FEF713F9FEF7E1F9A36888
:10507000002BCCD101992046FEF7AAFF0028C1D011
:10508000FEF726F9FFF75CF93B68BB4204D0BA692A
:105090009B6892689A420FD3002383F31188094BCF
:1050A000039A1B689A4240460AD105B0BDE8F08FCA
:1050B0000748FEF74DF899E70448FEF749F8EBE793
:1050C000FCF7FEF800080020F01F0020F0FA0008AE
:1050D00010FB0008000000000000000000000000BD
:1050E00030B50B490B4A0B680B4D0C4C83B022F0CA
:1050F0000702019301980A4B09682A6023F007030D
:105100008842236001D103B030BDFCF7D9F800BF5D
:1051100000080020C72E0020642600206026002002
:10512000000002200000000000000000000000005D
:1051300070B51C4E82B0336801930446202383F37C
:105140001188FFF7E5F8FEF7A3F8FEF771F9164AA4
:10515000164B15681B68E01D20F007005B1B98428A
:105160009ABF401910600025FEF7B2F8FFF7E8F883
:105170000F4B1A689A4204D0996993688A689A42D8
:1051800009D3002383F31188019A33689A42284691
:1051900005D102B070BD0748FDF7DAFFF1E7FCF773
:1051A0008FF800BF00080020642600206026002041
:1051B000F01F002030FB000800000000000000008D
:1051C00000B50B4B0B481A6883B0019201991A681D
:1051D000094B036091424FF00003C0E9023305D14F
:1051E000103003B05DF804EBFFF7AAB9FCF768F8DC
:1051F000000800206826002031510008000000004F
:1052000080B50D4A0D4982B000AF13687B604B68D2
:1052100023F001034B60EFF30983683383F30988BC
:10522000002383F3118879681368994202D1083703
:10523000BD4680BDFCF744F80008002030EF00E0D8
:10524000B0B5194C82B000AF23687B60202383F394
:105250001188164B5B6813F4006308D183F311883F
:105260007A6823689A421DD10837BD46B0BDF1EE79
:10527000103AEFF309854FF080720D4B45F84C2C36
:10528000DB6845F8083CA5F1680383F30988FEF75D
:1052900057FB18B1074B45F8503CE1E7064B45F882
:1052A000503CDDE7FCF70CF80008002000ED00E0C2
:1052B00030EF00E0E1020008F40200080000000006
:1052C00010B5184C82B02368019302F049FE1648CD
:1052D00004F066F900F0D4F800F00AF900F050F993
:1052E00000F07EF900F0ACF900F0DAF900F060FBB4
:1052F00000F08EFB01F0DCF901F0E2F801F0F0FDC6
:1053000001F036FE01F024FC06F0BAFB019A236896
:105310009A4204D102B0BDE8104001F011BEFBF783
:10532000CFFF00BF0008002080010108000000003E
:10533000F0B51A4D83B02B68019391420E46144686
:10534000074619D38B1A1F2B16D806F01F03581CBB
:105350006209012376098340B24203F1FF3304F06E
:105360001F0457F822000BD31840E040019A2B6825
:105370009A4210D103B0F0BD0948FDF7E9FEE4E719
:1053800057F82610C4F120020B4020FA04F403FA67
:1053900002F02043EAE7FBF793FF00BF000800207C
:1053A00040FB0008000000000000000000000000BA
:1053B000F0B51D4E83B033680193054670B37E226D
:1053C0007F212846FFF7B4FF80B1012806D00020D6
:1053D000019A33689A4225D103B0F0BD28463022A5
:1053E0004521FFF7A5FF01308002F1E73E22492168
:1053F0002846FFF79DFF2F22044631212846FFF75C
:1054000097FF5022074653212846FFF791FF0134AA
:1054100002370938BC4004FA00F0D9E70348FDF729
:1054200097FECCE7FBF74CFF0008002060FB00086C
:10543000F0B5104D83B02B680193044698B194F8F1
:10544000D63094F8D770019994F8D4602A6894F80B
:10545000D5001B0403EB07633344914203EB0020A8
:1054600005D103B0F0BD0448FDF772FEE7E7FBF796
:1054700027FF00BF0008002080FB0008000000009C
:1054800000B5074B83B01A680192019A1B689A42D3
:1054900004D103B05DF804EB02F022BEFBF710FF6D
:1054A00000080020000000000000000000000000D4
:1054B00000B50C4B83B01A68019201220270019969
:1054C0001A6800239142C0E90133C0E90333436104
:1054D00005D1183003B05DF804EBFFF731B8FBF7E6
:1054E000EFFE00BF000800200000000000000000E8
:1054F00000B5074B83B01A680192019A1B689A4263
:1055000004D103B05DF804EB03F092BBFBF7D8FEC7
:105510000008002000000000000000000000000063
:1055200030B5134B83B01A68019201220270019CBE
:105530001968002200F1180300F11C054260836124
:1055400000F1200200F12403C561026200F1280588
:1055500000F1080243628C4200F110038562C0E949
:105560000222C0E9043301D103B030BDFBF7A8FE2D
:105570000008002000000000000000000000000003
:1055800000B5074B83B01A680192019A1B689A42D2
:1055900004D103B05DF804EB03F0E2BFFBF790FE2B
:1055A00000080020000000000000000000000000D3
:1055B00000B50A4B83B01A6801920122027001996A
:1055C0001A6800239142C0E9043305D1183003B0B2
:1055D0005DF804EBFEF7B4BFFBF772FE0008002095
:1055E00000B5074B83B01A680192019A1B689A4272
:1055F00004D103B05DF804EB03F03ABBFBF760FEA7
:105600000008002000000000000000000000000072
:1056100000B5084B83B01A68019201220270019A0A
:105620001B6800219A42416002D103B05DF804FB7F
:10563000FBF746FE0008002000000000000000000C
:1056400000B5074B83B01A680192019A1B689A4211
:1056500004D103B05DF804EB05F09ABDFBF730FE12
:105660000008002000000000000000000000000012
:1056700000B5084B83B01A68019201220270019AAA
:105680001B6800219A42416002D103B05DF804FB1F
:10569000FBF716FE000800200000000000000000DC
:1056A00000B5074B83B01A680192019A1B689A42B1
:1056B00004D103B05DF804EB04F06ABAFBF700FE16
:1056C00000080020000000000000000000000000B2
:1056D00000B50A4B83B01A68019201220270019A48
:1056E0001B6800219A42416005D10C3003B05DF87F
:1056F00004EBFEF725BFFBF7E3FD00BF0008002029
:1057000070B51F4D82B02B6801930E46044680B3DE
:1057100079B323785A1E012A04D9052B02D01948DF
:10572000FDF716FD202383F31188FEF7F1FDFDF749
:10573000AFFD2046666004F053FA02232370FDF7A4
:10574000C7FDFEF7FDFD104B1A689A4204D0996917
:1057500093688A689A4208D3002383F31188019AD8
:105760002B689A4209D102B070BD0848FDF7F0FCE1
:10577000F2E70448FDF7ECFCCBE7FBF7A1FD00BF27
:1057800000080020B0FB0008F01F0020A0FB00086C
:1057900030B51D4D83B02B680193044670B3237858
:1057A0005A1E012A04D9052B02D01848FDF7D0FC57
:1057B000202383F31188FEF7ABFDFDF769FD20463A
:1057C00004F04EFB01232370FDF782FDFEF7B8FDC8
:1057D0000F4B1A689A4204D0996993688A689A4272
:1057E00008D3002383F31188019A2B689A4209D1C8
:1057F00003B030BD0748FDF7ABFCF2E70348FDF707
:10580000A7FCCCE7FBF75CFD00080020C0FB00080C
:10581000F01F0020A0FB00080000000000000000B6
:1058200030B5094D83B02B680193044630B1019A1D
:105830002B68A0689A4205D103B030BD0348FDF73C
:1058400087FCF4E7FBF73CFD00080020D0FB0008D4
:105850002DE9F04F304E87B034680594DDF840B044
:105860000D4690461F46DDE9119A044608B100290D
:105870003DD12A48FDF76CFC2378022B02D0274843
:10588000FDF766FC202383F31188FEF741FDFDF749
:10589000FFFC4FF0000C0320C4F808C04246294624
:1058A00020703B462046CDE9019ACDF800B004F0C7
:1058B0002FFB431C0CBF0523022323700546FDF775
:1058C00007FDFEF73DFD164B1A689A4204D0996910
:1058D00093688A689A4218D3002383F31188059A43
:1058E00033689A42284614D107B0BDE8F08F002BE8
:1058F000BFD0002ABDD0B9F1000F02D0BBF1000F1C
:10590000B7D0BAF1000FB7D1B3E70648FDF720FCD6
:10591000E2E7FBF7D5FC00BF00080020E0FB000831
:10592000F01F0020A0FB00080000000000000000A5
:1059300030B50B4C83B023680193054650B1019AF2
:1059400023689A420AD105F10C0003B0BDE830404B
:10595000FEF7DEBE0348FDF7FBFBF0E7FBF7B0FC0C
:105960000008002000FC000800000000000000000B
:1059700030B50B4C83B023680193054650B1019AB2
:1059800023689A420AD105F10C0003B0BDE830400B
:10599000FEF7F6BE0348FDF7DBFBF0E7FBF790FCF4
:1059A0000008002010FC00080000000000000000BB
:1059B00000B5074B83B01A680192019A1B689A429E
:1059C00004D103B05DF804EB05F022BBFBF778FCD3
:1059D000000800200000000000000000000000009F
:1059E00000B5084B83B01A68019201220270019A37
:1059F0001B6800219A42416002D103B05DF804FBAC
:105A0000FBF75EFC00080020000000000000000022
:105A100000B5074B83B01A680192019A1B689A423D
:105A200004D103B05DF804EB05F09ABCFBF748FC29
:105A3000000800200000000000000000000000003E
:105A400000B5094B83B01A680192012202700199D6
:105A50001A68002391424360C360037402D103B00B
:105A60005DF804FBFBF72CFC0008002000000000A0
:105A700070B5214E82B0336801930D46044600286C
:105A800033D0002931D0202383F31188FEF740FC66
:105A9000FDF7FEFB2378013B012B02D91748FDF7E8
:105AA00057FB65606B68A360204605F099FC0022F7
:105AB0000223E2602370FDF70BFCFEF741FC104B64
:105AC0001A689A4204D0996993688A689A4208D3FE
:105AD000002383F31188019A33689A4209D102B0F6
